{
  "contractName": "Color",
  "abi": [
    {
      "inputs": [],
      "stateMutability": "nonpayable",
      "type": "constructor"
    },
    {
      "anonymous": false,
      "inputs": [
        {
          "indexed": true,
          "internalType": "address",
          "name": "owner",
          "type": "address"
        },
        {
          "indexed": true,
          "internalType": "address",
          "name": "approved",
          "type": "address"
        },
        {
          "indexed": true,
          "internalType": "uint256",
          "name": "tokenId",
          "type": "uint256"
        }
      ],
      "name": "Approval",
      "type": "event"
    },
    {
      "anonymous": false,
      "inputs": [
        {
          "indexed": true,
          "internalType": "address",
          "name": "owner",
          "type": "address"
        },
        {
          "indexed": true,
          "internalType": "address",
          "name": "operator",
          "type": "address"
        },
        {
          "indexed": false,
          "internalType": "bool",
          "name": "approved",
          "type": "bool"
        }
      ],
      "name": "ApprovalForAll",
      "type": "event"
    },
    {
      "anonymous": false,
      "inputs": [
        {
          "indexed": true,
          "internalType": "address",
          "name": "from",
          "type": "address"
        },
        {
          "indexed": true,
          "internalType": "address",
          "name": "to",
          "type": "address"
        },
        {
          "indexed": true,
          "internalType": "uint256",
          "name": "tokenId",
          "type": "uint256"
        }
      ],
      "name": "Transfer",
      "type": "event"
    },
    {
      "inputs": [
        {
          "internalType": "string",
          "name": "",
          "type": "string"
        }
      ],
      "name": "_colorExists",
      "outputs": [
        {
          "internalType": "bool",
          "name": "",
          "type": "bool"
        }
      ],
      "stateMutability": "view",
      "type": "function",
      "constant": true
    },
    {
      "inputs": [
        {
          "internalType": "address",
          "name": "to",
          "type": "address"
        },
        {
          "internalType": "uint256",
          "name": "tokenId",
          "type": "uint256"
        }
      ],
      "name": "approve",
      "outputs": [],
      "stateMutability": "nonpayable",
      "type": "function"
    },
    {
      "inputs": [
        {
          "internalType": "address",
          "name": "owner",
          "type": "address"
        }
      ],
      "name": "balanceOf",
      "outputs": [
        {
          "internalType": "uint256",
          "name": "",
          "type": "uint256"
        }
      ],
      "stateMutability": "view",
      "type": "function",
      "constant": true
    },
    {
      "inputs": [
        {
          "internalType": "uint256",
          "name": "",
          "type": "uint256"
        }
      ],
      "name": "colors",
      "outputs": [
        {
          "internalType": "string",
          "name": "",
          "type": "string"
        }
      ],
      "stateMutability": "view",
      "type": "function",
      "constant": true
    },
    {
      "inputs": [
        {
          "internalType": "uint256",
          "name": "tokenId",
          "type": "uint256"
        }
      ],
      "name": "getApproved",
      "outputs": [
        {
          "internalType": "address",
          "name": "",
          "type": "address"
        }
      ],
      "stateMutability": "view",
      "type": "function",
      "constant": true
    },
    {
      "inputs": [
        {
          "internalType": "address",
          "name": "owner",
          "type": "address"
        },
        {
          "internalType": "address",
          "name": "operator",
          "type": "address"
        }
      ],
      "name": "isApprovedForAll",
      "outputs": [
        {
          "internalType": "bool",
          "name": "",
          "type": "bool"
        }
      ],
      "stateMutability": "view",
      "type": "function",
      "constant": true
    },
    {
      "inputs": [],
      "name": "name",
      "outputs": [
        {
          "internalType": "string",
          "name": "",
          "type": "string"
        }
      ],
      "stateMutability": "view",
      "type": "function",
      "constant": true
    },
    {
      "inputs": [
        {
          "internalType": "uint256",
          "name": "tokenId",
          "type": "uint256"
        }
      ],
      "name": "ownerOf",
      "outputs": [
        {
          "internalType": "address",
          "name": "",
          "type": "address"
        }
      ],
      "stateMutability": "view",
      "type": "function",
      "constant": true
    },
    {
      "inputs": [
        {
          "internalType": "address",
          "name": "from",
          "type": "address"
        },
        {
          "internalType": "address",
          "name": "to",
          "type": "address"
        },
        {
          "internalType": "uint256",
          "name": "tokenId",
          "type": "uint256"
        }
      ],
      "name": "safeTransferFrom",
      "outputs": [],
      "stateMutability": "nonpayable",
      "type": "function"
    },
    {
      "inputs": [
        {
          "internalType": "address",
          "name": "from",
          "type": "address"
        },
        {
          "internalType": "address",
          "name": "to",
          "type": "address"
        },
        {
          "internalType": "uint256",
          "name": "tokenId",
          "type": "uint256"
        },
        {
          "internalType": "bytes",
          "name": "_data",
          "type": "bytes"
        }
      ],
      "name": "safeTransferFrom",
      "outputs": [],
      "stateMutability": "nonpayable",
      "type": "function"
    },
    {
      "inputs": [
        {
          "internalType": "address",
          "name": "operator",
          "type": "address"
        },
        {
          "internalType": "bool",
          "name": "approved",
          "type": "bool"
        }
      ],
      "name": "setApprovalForAll",
      "outputs": [],
      "stateMutability": "nonpayable",
      "type": "function"
    },
    {
      "inputs": [
        {
          "internalType": "bytes4",
          "name": "interfaceId",
          "type": "bytes4"
        }
      ],
      "name": "supportsInterface",
      "outputs": [
        {
          "internalType": "bool",
          "name": "",
          "type": "bool"
        }
      ],
      "stateMutability": "view",
      "type": "function",
      "constant": true
    },
    {
      "inputs": [],
      "name": "symbol",
      "outputs": [
        {
          "internalType": "string",
          "name": "",
          "type": "string"
        }
      ],
      "stateMutability": "view",
      "type": "function",
      "constant": true
    },
    {
      "inputs": [
        {
          "internalType": "uint256",
          "name": "tokenId",
          "type": "uint256"
        }
      ],
      "name": "tokenURI",
      "outputs": [
        {
          "internalType": "string",
          "name": "",
          "type": "string"
        }
      ],
      "stateMutability": "view",
      "type": "function",
      "constant": true
    },
    {
      "inputs": [
        {
          "internalType": "address",
          "name": "from",
          "type": "address"
        },
        {
          "internalType": "address",
          "name": "to",
          "type": "address"
        },
        {
          "internalType": "uint256",
          "name": "tokenId",
          "type": "uint256"
        }
      ],
      "name": "transferFrom",
      "outputs": [],
      "stateMutability": "nonpayable",
      "type": "function"
    },
    {
      "inputs": [
        {
          "internalType": "string",
          "name": "_color",
          "type": "string"
        }
      ],
      "name": "mint",
      "outputs": [],
      "stateMutability": "nonpayable",
      "type": "function"
    }
  ],
  "bytecode": "0x60806040523480156200001157600080fd5b506040518060400160405280600581526020017f436f6c6f720000000000000000000000000000000000000000000000000000008152506040518060400160405280600581526020017f434f4c4f52000000000000000000000000000000000000000000000000000000815250816000908051906020019062000096929190620000b8565b508060019080519060200190620000af929190620000b8565b505050620001cd565b828054620000c69062000168565b90600052602060002090601f016020900481019282620000ea576000855562000136565b82601f106200010557805160ff191683800117855562000136565b8280016001018555821562000136579182015b828111156200013557825182559160200191906001019062000118565b5b50905062000145919062000149565b5090565b5b80821115620001645760008160009055506001016200014a565b5090565b600060028204905060018216806200018157607f821691505b602082108114156200019857620001976200019e565b5b50919050565b7f4e487b7100000000000000000000000000000000000000000000000000000000600052602260045260246000fd5b612a2f80620001dd6000396000f3fe608060405234801561001057600080fd5b50600436106101005760003560e01c806370a0823111610097578063bd11f69d11610066578063bd11f69d146102bd578063c87b56dd146102ed578063d85d3d271461031d578063e985e9c51461033957610100565b806370a082311461023757806395d89b4114610267578063a22cb46514610285578063b88d4fde146102a157610100565b806323b872dd116100d357806323b872dd1461019f57806342842e0e146101bb5780636352211e146101d75780636ab200581461020757610100565b806301ffc9a71461010557806306fdde0314610135578063081812fc14610153578063095ea7b314610183575b600080fd5b61011f600480360381019061011a9190611ba8565b610369565b60405161012c9190611fc0565b60405180910390f35b61013d61044b565b60405161014a9190611fdb565b60405180910390f35b61016d60048036038101906101689190611c3b565b6104dd565b60405161017a9190611f59565b60405180910390f35b61019d60048036038101906101989190611b6c565b610562565b005b6101b960048036038101906101b49190611a66565b61067a565b005b6101d560048036038101906101d09190611a66565b6106da565b005b6101f160048036038101906101ec9190611c3b565b6106fa565b6040516101fe9190611f59565b60405180910390f35b610221600480360381019061021c9190611bfa565b6107ac565b60405161022e9190611fc0565b60405180910390f35b610251600480360381019061024c9190611a01565b6107e2565b60405161025e91906121bd565b60405180910390f35b61026f61089a565b60405161027c9190611fdb565b60405180910390f35b61029f600480360381019061029a9190611b30565b61092c565b005b6102bb60048036038101906102b69190611ab5565b610aad565b005b6102d760048036038101906102d29190611c3b565b610b0f565b6040516102e49190611fdb565b60405180910390f35b61030760048036038101906103029190611c3b565b610bbb565b6040516103149190611fdb565b60405180910390f35b61033760048036038101906103329190611bfa565b610c62565b005b610353600480360381019061034e9190611a2a565b610d23565b6040516103609190611fc0565b60405180910390f35b60007f80ac58cd000000000000000000000000000000000000000000000000000000007bffffffffffffffffffffffffffffffffffffffffffffffffffffffff1916827bffffffffffffffffffffffffffffffffffffffffffffffffffffffff1916148061043457507f5b5e139f000000000000000000000000000000000000000000000000000000007bffffffffffffffffffffffffffffffffffffffffffffffffffffffff1916827bffffffffffffffffffffffffffffffffffffffffffffffffffffffff1916145b80610444575061044382610db7565b5b9050919050565b60606000805461045a90612413565b80601f016020809104026020016040519081016040528092919081815260200182805461048690612413565b80156104d35780601f106104a8576101008083540402835291602001916104d3565b820191906000526020600020905b8154815290600101906020018083116104b657829003601f168201915b5050505050905090565b60006104e882610e21565b610527576040517f08c379a000000000000000000000000000000000000000000000000000000000815260040161051e9061211d565b60405180910390fd5b6004600083815260200190815260200160002060009054906101000a900473ffffffffffffffffffffffffffffffffffffffff169050919050565b600061056d826106fa565b90508073ffffffffffffffffffffffffffffffffffffffff168373ffffffffffffffffffffffffffffffffffffffff1614156105de576040517f08c379a00000000000000000000000000000000000000000000000000000000081526004016105d59061217d565b60405180910390fd5b8073ffffffffffffffffffffffffffffffffffffffff166105fd610e8d565b73ffffffffffffffffffffffffffffffffffffffff16148061062c575061062b81610626610e8d565b610d23565b5b61066b576040517f08c379a00000000000000000000000000000000000000000000000000000000081526004016106629061209d565b60405180910390fd5b6106758383610e95565b505050565b61068b610685610e8d565b82610f4e565b6106ca576040517f08c379a00000000000000000000000000000000000000000000000000000000081526004016106c19061219d565b60405180910390fd5b6106d583838361102c565b505050565b6106f583838360405180602001604052806000815250610aad565b505050565b6000806002600084815260200190815260200160002060009054906101000a900473ffffffffffffffffffffffffffffffffffffffff169050600073ffffffffffffffffffffffffffffffffffffffff168173ffffffffffffffffffffffffffffffffffffffff1614156107a3576040517f08c379a000000000000000000000000000000000000000000000000000000000815260040161079a906120dd565b60405180910390fd5b80915050919050565b6007818051602081018201805184825260208301602085012081835280955050505050506000915054906101000a900460ff1681565b60008073ffffffffffffffffffffffffffffffffffffffff168273ffffffffffffffffffffffffffffffffffffffff161415610853576040517f08c379a000000000000000000000000000000000000000000000000000000000815260040161084a906120bd565b60405180910390fd5b600360008373ffffffffffffffffffffffffffffffffffffffff1673ffffffffffffffffffffffffffffffffffffffff168152602001908152602001600020549050919050565b6060600180546108a990612413565b80601f01602080910402602001604051908101604052809291908181526020018280546108d590612413565b80156109225780601f106108f757610100808354040283529160200191610922565b820191906000526020600020905b81548152906001019060200180831161090557829003601f168201915b5050505050905090565b610934610e8d565b73ffffffffffffffffffffffffffffffffffffffff168273ffffffffffffffffffffffffffffffffffffffff1614156109a2576040517f08c379a00000000000000000000000000000000000000000000000000000000081526004016109999061205d565b60405180910390fd5b80600560006109af610e8d565b73ffffffffffffffffffffffffffffffffffffffff1673ffffffffffffffffffffffffffffffffffffffff16815260200190815260200160002060008473ffffffffffffffffffffffffffffffffffffffff1673ffffffffffffffffffffffffffffffffffffffff16815260200190815260200160002060006101000a81548160ff0219169083151502179055508173ffffffffffffffffffffffffffffffffffffffff16610a5c610e8d565b73ffffffffffffffffffffffffffffffffffffffff167f17307eab39ab6107e8899845ad3d59bd9653f200f220920489ca2b5937696c3183604051610aa19190611fc0565b60405180910390a35050565b610abe610ab8610e8d565b83610f4e565b610afd576040517f08c379a0000000000000000000000000000000000000000000000000000000008152600401610af49061219d565b60405180910390fd5b610b0984848484611288565b50505050565b60068181548110610b1f57600080fd5b906000526020600020016000915090508054610b3a90612413565b80601f0160208091040260200160405190810160405280929190818152602001828054610b6690612413565b8015610bb35780601f10610b8857610100808354040283529160200191610bb3565b820191906000526020600020905b815481529060010190602001808311610b9657829003601f168201915b505050505081565b6060610bc682610e21565b610c05576040517f08c379a0000000000000000000000000000000000000000000000000000000008152600401610bfc9061215d565b60405180910390fd5b6000610c0f6112e4565b90506000815111610c2f5760405180602001604052806000815250610c5a565b80610c39846112fb565b604051602001610c4a929190611f35565b6040516020818303038152906040525b915050919050565b600781604051610c729190611f1e565b908152602001604051809103902060009054906101000a900460ff1615610c9857600080fd5b600681908060018154018082558091505060019003906000526020600020016000909190919091509080519060200190610cd3929190611825565b5060006006805490509050610ce833826114a8565b6001600783604051610cfa9190611f1e565b908152602001604051809103902060006101000a81548160ff0219169083151502179055505050565b6000600560008473ffffffffffffffffffffffffffffffffffffffff1673ffffffffffffffffffffffffffffffffffffffff16815260200190815260200160002060008373ffffffffffffffffffffffffffffffffffffffff1673ffffffffffffffffffffffffffffffffffffffff16815260200190815260200160002060009054906101000a900460ff16905092915050565b60007f01ffc9a7000000000000000000000000000000000000000000000000000000007bffffffffffffffffffffffffffffffffffffffffffffffffffffffff1916827bffffffffffffffffffffffffffffffffffffffffffffffffffffffff1916149050919050565b60008073ffffffffffffffffffffffffffffffffffffffff166002600084815260200190815260200160002060009054906101000a900473ffffffffffffffffffffffffffffffffffffffff1673ffffffffffffffffffffffffffffffffffffffff1614159050919050565b600033905090565b816004600083815260200190815260200160002060006101000a81548173ffffffffffffffffffffffffffffffffffffffff021916908373ffffffffffffffffffffffffffffffffffffffff160217905550808273ffffffffffffffffffffffffffffffffffffffff16610f08836106fa565b73ffffffffffffffffffffffffffffffffffffffff167f8c5be1e5ebec7d5bd14f71427d1e84f3dd0314c0f7b2291e5b200ac8c7c3b92560405160405180910390a45050565b6000610f5982610e21565b610f98576040517f08c379a0000000000000000000000000000000000000000000000000000000008152600401610f8f9061207d565b60405180910390fd5b6000610fa3836106fa565b90508073ffffffffffffffffffffffffffffffffffffffff168473ffffffffffffffffffffffffffffffffffffffff16148061101257508373ffffffffffffffffffffffffffffffffffffffff16610ffa846104dd565b73ffffffffffffffffffffffffffffffffffffffff16145b8061102357506110228185610d23565b5b91505092915050565b8273ffffffffffffffffffffffffffffffffffffffff1661104c826106fa565b73ffffffffffffffffffffffffffffffffffffffff16146110a2576040517f08c379a00000000000000000000000000000000000000000000000000000000081526004016110999061213d565b60405180910390fd5b600073ffffffffffffffffffffffffffffffffffffffff168273ffffffffffffffffffffffffffffffffffffffff161415611112576040517f08c379a00000000000000000000000000000000000000000000000000000000081526004016111099061203d565b60405180910390fd5b61111d838383611676565b611128600082610e95565b6001600360008573ffffffffffffffffffffffffffffffffffffffff1673ffffffffffffffffffffffffffffffffffffffff16815260200190815260200160002060008282546111789190612329565b925050819055506001600360008473ffffffffffffffffffffffffffffffffffffffff1673ffffffffffffffffffffffffffffffffffffffff16815260200190815260200160002060008282546111cf91906122a2565b92505081905550816002600083815260200190815260200160002060006101000a81548173ffffffffffffffffffffffffffffffffffffffff021916908373ffffffffffffffffffffffffffffffffffffffff160217905550808273ffffffffffffffffffffffffffffffffffffffff168473ffffffffffffffffffffffffffffffffffffffff167fddf252ad1be2c89b69c2b068fc378daa952ba7f163c4a11628f55a4df523b3ef60405160405180910390a4505050565b61129384848461102c565b61129f8484848461167b565b6112de576040517f08c379a00000000000000000000000000000000000000000000000000000000081526004016112d590611ffd565b60405180910390fd5b50505050565b606060405180602001604052806000815250905090565b60606000821415611343576040518060400160405280600181526020017f300000000000000000000000000000000000000000000000000000000000000081525090506114a3565b600082905060005b6000821461137557808061135e90612476565b915050600a8261136e91906122f8565b915061134b565b60008167ffffffffffffffff8111156113b7577f4e487b7100000000000000000000000000000000000000000000000000000000600052604160045260246000fd5b6040519080825280601f01601f1916602001820160405280156113e95781602001600182028036833780820191505090505b5090505b6000851461149c576001826114029190612329565b9150600a8561141191906124bf565b603061141d91906122a2565b60f81b818381518110611459577f4e487b7100000000000000000000000000000000000000000000000000000000600052603260045260246000fd5b60200101907effffffffffffffffffffffffffffffffffffffffffffffffffffffffffffff1916908160001a905350600a8561149591906122f8565b94506113ed565b8093505050505b919050565b600073ffffffffffffffffffffffffffffffffffffffff168273ffffffffffffffffffffffffffffffffffffffff161415611518576040517f08c379a000000000000000000000000000000000000000000000000000000000815260040161150f906120fd565b60405180910390fd5b61152181610e21565b15611561576040517f08c379a00000000000000000000000000000000000000000000000000000000081526004016115589061201d565b60405180910390fd5b61156d60008383611676565b6001600360008473ffffffffffffffffffffffffffffffffffffffff1673ffffffffffffffffffffffffffffffffffffffff16815260200190815260200160002060008282546115bd91906122a2565b92505081905550816002600083815260200190815260200160002060006101000a81548173ffffffffffffffffffffffffffffffffffffffff021916908373ffffffffffffffffffffffffffffffffffffffff160217905550808273ffffffffffffffffffffffffffffffffffffffff16600073ffffffffffffffffffffffffffffffffffffffff167fddf252ad1be2c89b69c2b068fc378daa952ba7f163c4a11628f55a4df523b3ef60405160405180910390a45050565b505050565b600061169c8473ffffffffffffffffffffffffffffffffffffffff16611812565b15611805578373ffffffffffffffffffffffffffffffffffffffff1663150b7a026116c5610e8d565b8786866040518563ffffffff1660e01b81526004016116e79493929190611f74565b602060405180830381600087803b15801561170157600080fd5b505af192505050801561173257506040513d601f19601f8201168201806040525081019061172f9190611bd1565b60015b6117b5573d8060008114611762576040519150601f19603f3d011682016040523d82523d6000602084013e611767565b606091505b506000815114156117ad576040517f08c379a00000000000000000000000000000000000000000000000000000000081526004016117a490611ffd565b60405180910390fd5b805181602001fd5b63150b7a0260e01b7bffffffffffffffffffffffffffffffffffffffffffffffffffffffff1916817bffffffffffffffffffffffffffffffffffffffffffffffffffffffff19161491505061180a565b600190505b949350505050565b600080823b905060008111915050919050565b82805461183190612413565b90600052602060002090601f016020900481019282611853576000855561189a565b82601f1061186c57805160ff191683800117855561189a565b8280016001018555821561189a579182015b8281111561189957825182559160200191906001019061187e565b5b5090506118a791906118ab565b5090565b5b808211156118c45760008160009055506001016118ac565b5090565b60006118db6118d6846121fd565b6121d8565b9050828152602081018484840111156118f357600080fd5b6118fe8482856123d1565b509392505050565b60006119196119148461222e565b6121d8565b90508281526020810184848401111561193157600080fd5b61193c8482856123d1565b509392505050565b6000813590506119538161299d565b92915050565b600081359050611968816129b4565b92915050565b60008135905061197d816129cb565b92915050565b600081519050611992816129cb565b92915050565b600082601f8301126119a957600080fd5b81356119b98482602086016118c8565b91505092915050565b600082601f8301126119d357600080fd5b81356119e3848260208601611906565b91505092915050565b6000813590506119fb816129e2565b92915050565b600060208284031215611a1357600080fd5b6000611a2184828501611944565b91505092915050565b60008060408385031215611a3d57600080fd5b6000611a4b85828601611944565b9250506020611a5c85828601611944565b9150509250929050565b600080600060608486031215611a7b57600080fd5b6000611a8986828701611944565b9350506020611a9a86828701611944565b9250506040611aab868287016119ec565b9150509250925092565b60008060008060808587031215611acb57600080fd5b6000611ad987828801611944565b9450506020611aea87828801611944565b9350506040611afb878288016119ec565b925050606085013567ffffffffffffffff811115611b1857600080fd5b611b2487828801611998565b91505092959194509250565b60008060408385031215611b4357600080fd5b6000611b5185828601611944565b9250506020611b6285828601611959565b9150509250929050565b60008060408385031215611b7f57600080fd5b6000611b8d85828601611944565b9250506020611b9e858286016119ec565b9150509250929050565b600060208284031215611bba57600080fd5b6000611bc88482850161196e565b91505092915050565b600060208284031215611be357600080fd5b6000611bf184828501611983565b91505092915050565b600060208284031215611c0c57600080fd5b600082013567ffffffffffffffff811115611c2657600080fd5b611c32848285016119c2565b91505092915050565b600060208284031215611c4d57600080fd5b6000611c5b848285016119ec565b91505092915050565b611c6d8161235d565b82525050565b611c7c8161236f565b82525050565b6000611c8d8261225f565b611c978185612275565b9350611ca78185602086016123e0565b611cb0816125ac565b840191505092915050565b6000611cc68261226a565b611cd08185612286565b9350611ce08185602086016123e0565b611ce9816125ac565b840191505092915050565b6000611cff8261226a565b611d098185612297565b9350611d198185602086016123e0565b80840191505092915050565b6000611d32603283612286565b9150611d3d826125bd565b604082019050919050565b6000611d55601c83612286565b9150611d608261260c565b602082019050919050565b6000611d78602483612286565b9150611d8382612635565b604082019050919050565b6000611d9b601983612286565b9150611da682612684565b602082019050919050565b6000611dbe602c83612286565b9150611dc9826126ad565b604082019050919050565b6000611de1603883612286565b9150611dec826126fc565b604082019050919050565b6000611e04602a83612286565b9150611e0f8261274b565b604082019050919050565b6000611e27602983612286565b9150611e328261279a565b604082019050919050565b6000611e4a602083612286565b9150611e55826127e9565b602082019050919050565b6000611e6d602c83612286565b9150611e7882612812565b604082019050919050565b6000611e90602983612286565b9150611e9b82612861565b604082019050919050565b6000611eb3602f83612286565b9150611ebe826128b0565b604082019050919050565b6000611ed6602183612286565b9150611ee1826128ff565b604082019050919050565b6000611ef9603183612286565b9150611f048261294e565b604082019050919050565b611f18816123c7565b82525050565b6000611f2a8284611cf4565b915081905092915050565b6000611f418285611cf4565b9150611f4d8284611cf4565b91508190509392505050565b6000602082019050611f6e6000830184611c64565b92915050565b6000608082019050611f896000830187611c64565b611f966020830186611c64565b611fa36040830185611f0f565b8181036060830152611fb58184611c82565b905095945050505050565b6000602082019050611fd56000830184611c73565b92915050565b60006020820190508181036000830152611ff58184611cbb565b905092915050565b6000602082019050818103600083015261201681611d25565b9050919050565b6000602082019050818103600083015261203681611d48565b9050919050565b6000602082019050818103600083015261205681611d6b565b9050919050565b6000602082019050818103600083015261207681611d8e565b9050919050565b6000602082019050818103600083015261209681611db1565b9050919050565b600060208201905081810360008301526120b681611dd4565b9050919050565b600060208201905081810360008301526120d681611df7565b9050919050565b600060208201905081810360008301526120f681611e1a565b9050919050565b6000602082019050818103600083015261211681611e3d565b9050919050565b6000602082019050818103600083015261213681611e60565b9050919050565b6000602082019050818103600083015261215681611e83565b9050919050565b6000602082019050818103600083015261217681611ea6565b9050919050565b6000602082019050818103600083015261219681611ec9565b9050919050565b600060208201905081810360008301526121b681611eec565b9050919050565b60006020820190506121d26000830184611f0f565b92915050565b60006121e26121f3565b90506121ee8282612445565b919050565b6000604051905090565b600067ffffffffffffffff8211156122185761221761257d565b5b612221826125ac565b9050602081019050919050565b600067ffffffffffffffff8211156122495761224861257d565b5b612252826125ac565b9050602081019050919050565b600081519050919050565b600081519050919050565b600082825260208201905092915050565b600082825260208201905092915050565b600081905092915050565b60006122ad826123c7565b91506122b8836123c7565b9250827fffffffffffffffffffffffffffffffffffffffffffffffffffffffffffffffff038211156122ed576122ec6124f0565b5b828201905092915050565b6000612303826123c7565b915061230e836123c7565b92508261231e5761231d61251f565b5b828204905092915050565b6000612334826123c7565b915061233f836123c7565b925082821015612352576123516124f0565b5b828203905092915050565b6000612368826123a7565b9050919050565b60008115159050919050565b60007fffffffff0000000000000000000000000000000000000000000000000000000082169050919050565b600073ffffffffffffffffffffffffffffffffffffffff82169050919050565b6000819050919050565b82818337600083830152505050565b60005b838110156123fe5780820151818401526020810190506123e3565b8381111561240d576000848401525b50505050565b6000600282049050600182168061242b57607f821691505b6020821081141561243f5761243e61254e565b5b50919050565b61244e826125ac565b810181811067ffffffffffffffff8211171561246d5761246c61257d565b5b80604052505050565b6000612481826123c7565b91507fffffffffffffffffffffffffffffffffffffffffffffffffffffffffffffffff8214156124b4576124b36124f0565b5b600182019050919050565b60006124ca826123c7565b91506124d5836123c7565b9250826124e5576124e461251f565b5b828206905092915050565b7f4e487b7100000000000000000000000000000000000000000000000000000000600052601160045260246000fd5b7f4e487b7100000000000000000000000000000000000000000000000000000000600052601260045260246000fd5b7f4e487b7100000000000000000000000000000000000000000000000000000000600052602260045260246000fd5b7f4e487b7100000000000000000000000000000000000000000000000000000000600052604160045260246000fd5b6000601f19601f8301169050919050565b7f4552433732313a207472616e7366657220746f206e6f6e20455243373231526560008201527f63656976657220696d706c656d656e7465720000000000000000000000000000602082015250565b7f4552433732313a20746f6b656e20616c7265616479206d696e74656400000000600082015250565b7f4552433732313a207472616e7366657220746f20746865207a65726f2061646460008201527f7265737300000000000000000000000000000000000000000000000000000000602082015250565b7f4552433732313a20617070726f766520746f2063616c6c657200000000000000600082015250565b7f4552433732313a206f70657261746f7220717565727920666f72206e6f6e657860008201527f697374656e7420746f6b656e0000000000000000000000000000000000000000602082015250565b7f4552433732313a20617070726f76652063616c6c6572206973206e6f74206f7760008201527f6e6572206e6f7220617070726f76656420666f7220616c6c0000000000000000602082015250565b7f4552433732313a2062616c616e636520717565727920666f7220746865207a6560008201527f726f206164647265737300000000000000000000000000000000000000000000602082015250565b7f4552433732313a206f776e657220717565727920666f72206e6f6e657869737460008201527f656e7420746f6b656e0000000000000000000000000000000000000000000000602082015250565b7f4552433732313a206d696e7420746f20746865207a65726f2061646472657373600082015250565b7f4552433732313a20617070726f76656420717565727920666f72206e6f6e657860008201527f697374656e7420746f6b656e0000000000000000000000000000000000000000602082015250565b7f4552433732313a207472616e73666572206f6620746f6b656e2074686174206960008201527f73206e6f74206f776e0000000000000000000000000000000000000000000000602082015250565b7f4552433732314d657461646174613a2055524920717565727920666f72206e6f60008201527f6e6578697374656e7420746f6b656e0000000000000000000000000000000000602082015250565b7f4552433732313a20617070726f76616c20746f2063757272656e74206f776e6560008201527f7200000000000000000000000000000000000000000000000000000000000000602082015250565b7f4552433732313a207472616e736665722063616c6c6572206973206e6f74206f60008201527f776e6572206e6f7220617070726f766564000000000000000000000000000000602082015250565b6129a68161235d565b81146129b157600080fd5b50565b6129bd8161236f565b81146129c857600080fd5b50565b6129d48161237b565b81146129df57600080fd5b50565b6129eb816123c7565b81146129f657600080fd5b5056fea264697066735822122023b440a5a529c8b8a169f2a0de35e77f7b113b566287a04959f6419d09607c5164736f6c63430008040033",
  "immutableReferences": {},
  "source": "// SPDX-License-Identifier: MIT\r\npragma solidity >=0.8.0;\r\n\r\nimport \"@openzeppelin/contracts/token/ERC721/ERC721.sol\";\r\n\r\ncontract Color is ERC721 {\r\n    string[] public colors;\r\n    mapping (string => bool) public _colorExists;\r\n    constructor() ERC721(\"Color\", \"COLOR\"){\r\n         \r\n    }\r\n\r\n    function mint(string memory _color) public{\r\n        // Require unique color\r\n        require(!_colorExists[_color]);\r\n\r\n        // Color - add it\r\n        colors.push(_color);\r\n        uint _id = colors.length;\r\n        // Call the mint function\r\n        _mint(msg.sender, _id);\r\n        // Color - track it\r\n        _colorExists[_color] = true;\r\n    }\r\n}",
  "sourcePath": "C:/Users/debjitdbb/Documents/Work/smart-contracts/nft/src/contracts/Color.sol",
  "compiler": {
    "name": "solc",
    "version": "0.8.4+commit.c7e474f2.Emscripten.clang"
  },
  "schemaVersion": "3.4.0",
  "updatedAt": "2021-05-28T11:39:40.135Z",
  "networkType": "ethereum",
  "devdoc": {
    "kind": "dev",
    "methods": {
      "approve(address,uint256)": {
        "details": "See {IERC721-approve}."
      },
      "balanceOf(address)": {
        "details": "See {IERC721-balanceOf}."
      },
      "getApproved(uint256)": {
        "details": "See {IERC721-getApproved}."
      },
      "isApprovedForAll(address,address)": {
        "details": "See {IERC721-isApprovedForAll}."
      },
      "name()": {
        "details": "See {IERC721Metadata-name}."
      },
      "ownerOf(uint256)": {
        "details": "See {IERC721-ownerOf}."
      },
      "safeTransferFrom(address,address,uint256)": {
        "details": "See {IERC721-safeTransferFrom}."
      },
      "safeTransferFrom(address,address,uint256,bytes)": {
        "details": "See {IERC721-safeTransferFrom}."
      },
      "setApprovalForAll(address,bool)": {
        "details": "See {IERC721-setApprovalForAll}."
      },
      "supportsInterface(bytes4)": {
        "details": "See {IERC165-supportsInterface}."
      },
      "symbol()": {
        "details": "See {IERC721Metadata-symbol}."
      },
      "tokenURI(uint256)": {
        "details": "See {IERC721Metadata-tokenURI}."
      },
      "transferFrom(address,address,uint256)": {
        "details": "See {IERC721-transferFrom}."
      }
    },
    "version": 1
  },
  "userdoc": {
    "kind": "user",
    "methods": {},
    "version": 1
  }
}